{
  "contractName": "HelloEthSalon",
  "abi": [
    {
      "constant": true,
      "inputs": [],
      "name": "GetMessage",
      "outputs": [
        {
          "name": "",
          "type": "string"
        }
      ],
      "payable": false,
      "stateMutability": "view",
      "type": "function"
    },
    {
      "inputs": [
        {
          "name": "mesg",
          "type": "string"
        }
      ],
      "payable": false,
      "stateMutability": "nonpayable",
      "type": "function",
      "constant": false,
      "name": "SetMessage",
      "outputs": []
    },
    {
      "inputs": [],
      "payable": false,
      "stateMutability": "nonpayable",
      "type": "constructor"
    }
  ],
  "bytecode": "0x60606040526040805190810160405280601e81526020017f49206b6e6f772074657374696e67206f66206120636f6e7472616374212100008152506000908051906020019061004f929190610060565b50341561005b57600080fd5b610105565b828054600181600116156101000203166002900490600052602060002090601f016020900481019282601f106100a157805160ff19168380011785556100cf565b828001600101855582156100cf579182015b828111156100ce5782518255916020019190600101906100b3565b5b5090506100dc91906100e0565b5090565b61010291905b808211156100fe5760008160009055506001016100e6565b5090565b90565b6102e3806101146000396000f30060606040526004361061004c576000357c0100000000000000000000000000000000000000000000000000000000900463ffffffff16806303e33b531461005157806388fabb3a146100df575b600080fd5b341561005c57600080fd5b61006461013c565b6040518080602001828103825283818151815260200191508051906020019080838360005b838110156100a4578082015181840152602081019050610089565b50505050905090810190601f1680156100d15780820380516001836020036101000a031916815260200191505b509250505060405180910390f35b34156100ea57600080fd5b61013a600480803590602001908201803590602001908080601f016020809104026020016040519081016040528093929190818152602001838380828437820191505050505050919050506101e4565b005b6101446101fe565b60008054600181600116156101000203166002900480601f0160208091040260200160405190810160405280929190818152602001828054600181600116156101000203166002900480156101da5780601f106101af576101008083540402835291602001916101da565b820191906000526020600020905b8154815290600101906020018083116101bd57829003601f168201915b5050505050905090565b80600090805190602001906101fa929190610212565b5050565b602060405190810160405280600081525090565b828054600181600116156101000203166002900490600052602060002090601f016020900481019282601f1061025357805160ff1916838001178555610281565b82800160010185558215610281579182015b82811115610280578251825591602001919060010190610265565b5b50905061028e9190610292565b5090565b6102b491905b808211156102b0576000816000905550600101610298565b5090565b905600a165627a7a723058200ebec85d9d4c202d58b9761ab36e11c31a3cf4424ef92e9da558fd612c7a204f0029",
  "source": "pragma solidity ^0.4.4;\ncontract HelloEthSalon {\n    string message = \"I know testing of a contract!!\";\n    function HelloEthSalon() public {\n        // constructor\n    }\n    function GetMessage() view public returns (string) {\n        return message;\n    }\n    function SetMessage(string mesg) public {\n        message = mesg;\n    }\n}\n",
  "sourcePath": "/Users/rkass/repos/hello-ethereum-salon-contract/contracts/HelloEthSalon.sol",
  "compiler": {
    "name": "solc",
    "version": "0.4.18+commit.9cf6e910.Emscripten.clang"
  },
  "schemaVersion": "1.0.1",
  "updatedAt": "2017-12-14T02:47:46.491Z"
}